:020000041000EA
:1000000000B5324B212058609868022188439860DF
:10001000D860186158612E4B002199600221596106
:100020000121F02299502B49196001219960352056
:1000300000F044F80222904214D00621196600F024
:1000400034F8196E01211966002018661A6600F04E
:100050002CF8196E196E196E052000F02FF8012189
:100060000842F9D1002199601B49196000215960AB
:100070001A491B48016001219960EB211966A021F2
:10008000196600F012F800219960164914480160C1
:100090000121996001BC002800D000471248134993
:1000A000086003C880F30888084703B5996A0420EC
:1000B0000142FBD001200142F8D103BD02B5186610
:1000C0001866FFF7F2FF186E186E02BD00000240BE
:1000D000000000180000070000035F00212200005C
:1000E000F4000018222000A00001001008ED00E03C
:1000F00000000000000000000000000074B24E7A12
:1001000000200420F7010010C3010010C5010010F9
:10011000C1010010C1010010C1010010C101001097
:10012000C1010010C1010010C1010010753800109C
:10013000C1010010C1010010D138001015390010A4
:10014000CD010010CD010010CD010010CD01001037
:10015000CD010010CD010010CD010010CD01001027
:10016000CD010010CD010010CD010010CD01001017
:10017000CD010010CD010010CD010010CD01001007
:10018000CD010010CD010010CD010010CD010010F7
:10019000CD010010CD010010CD010010CD010010E7
:1001A000CD010010CD010010CD010010CD010010D7
:1001B000CD010010CD010010CD010010CD010010C7
:1001C00000BE00BE00BE00BE00BE00BE00F04BF888
:1001D000103800BEF2EB887164560010885600108B
:1001E0003402001090A31AE700202149086006C8D5
:1001F00081F3088810471F48006800282FD10DA4FC
:100200000ECC002902D000F012F8F9E71A491B4A77
:10021000002000E001C19142FCD1194988471949E9
:1002200088471949884700BEFDE701C901C29A42C3
:10023000FBD3704788560010C0000020840A0020BD
:100240004C60001000000420000004204C600010EE
:1002500000100420001004200000000070470B482C
:1002600001F08AFA0047EFF30580C0B27047000042
:1002700008ED00E0000000D0880A00202C100020CB
:10028000090F0010310300102D1000105756000008
:1002900006005250ABB36053A055001006005250F8
:1002A000861C0302B0550010060052505422A29D35
:1002B000B855001005005250DE65F4684C6000101F
:1002C000F8B5C04610B5064C2378002B07D1054B76
:1002D000002B02D0044800E000BF0123237010BDB2
:1002E000D80D00200000000028550010044B10B568
:1002F000002B03D00349044800E000BF10BDC046F6
:1003000000000000DC0D00202855001070B5D0243E
:10031000802519202406AD0400F038F865620A2013
:10032000656102F0C9FA0A20A56102F0C5FAF6E794
:1003300000B583B001F0B6FC0023802201930133A5
:100340000449009352000023034801F003FE02F029
:1003500013F9FEE7285500100D030010094A830029
:1003600094464022634410B51C68C0006240C0241B
:1003700014408022520113431C60034B9C4660448E
:10038000416010BD04C00140004001400123D02263
:100390008340120693629361094A83009446402287
:1003A00063441968C0004A40C021114080225201B4
:1003B00013431960034B9C46052360444360704718
:1003C00004C001400040014070B5EFF3108C72B6DC
:1003D0000D4D2B68002BFCD0BFF35F8F0724CB089B
:1003E000C618C05C01230C40A3401C00044003421B
:1003F00007D103433370BFF35F8F2C608CF31088F9
:1004000070BD100000F014FE2C0100D0024B1868E3
:100410008007C00F7047C04600C006400021044B53
:10042000044ABFF35F8F02C39342FAD17047C046BC
:10043000000100D0800100D0044A1078431CDBB2D8
:10044000172B00D9102313707047C0467801002085
:10045000F8B5040006200D0000F066FF002844D027
:100460002A4B2B49E21853425A418023DB039C4616
:100470009205284B62441A60274B1A6010008B6863
:100480009843FBD1214B8021E3185A425341234A20
:100490005B0049009952062000F046FF2900C00089
:1004A00001F09CF9C30921D14027012126008025B4
:1004B0006162A36200232C36AD0135432B60062018
:1004C00000F032FF3900800001F088F96023E26A11
:1004D00053406E221A4080235B0133431A60104B55
:1004E000236310232B600D3BA364F8BD0D4A934298
:1004F00003D900230C4F0D49D8E77F22104001306B
:1005000040089F0119003F180300CFE70080FCBF9F
:1005100000C0004000E0004000F00040201000203B
:1005200001030000FEFF0000C0FF3F00FFFF0000CE
:1005300083680B4810B58446614462440901120186
:100540009A18591854684B6801209C4201D802D06F
:100550000020C0B210BD12680B689A42F9D8F7E7C4
:10056000FFFFFF0FF8B557464E464546DE46E0B55D
:1005700099460CAB1C780DAB1B78060090469A464A
:100580000768002C11D1BC7B002C42D065003B6871
:100590002D19033D59194B78BB73002B00D1FB7308
:1005A00000238B704B700B7004E065003B682D19C5
:1005B000033D5919B2682A4B94464246E3181B0181
:1005C00063441A604A465A600A9A9A600B9ADA6043
:1005D00000238B704B700B707B7B9B46002B2BD0CA
:1005E00022005946B8687B6898473A68002816D0B8
:1005F0005B4658465B005B445519033BA870D11815
:10060000D35C002B00D06B705B460C707B73A345F2
:1006100013D0F0BCBB46B246A946A046F8BD5B4627
:100620005B005B44033BD3189C705119525D002A58
:1006300000D05A705B460B707C7342464B46307D4F
:1006400000F0DEF9051E06D05346002B03D1210031
:10065000306800F01BFC0E9B002BDAD01D70D8E731
:10066000FFFFFF0FF0B5DE464E46574645460023D6
:10067000E0B58DB00A936B4B8200D3580B9099462E
:1006800000239B464B46079300F06AF9079C06003F
:100690000F006268EFF3108572B61368002BFCD070
:1006A00022000794BFF35F8F2468637B9946002B79
:1006B00067D092685C4B90464B441B01984443467C
:1006C0001A685B6810001900801BB94100295FDDC2
:1006D0000B9800F095F900230026984600279A46CB
:1006E000079C6368BFF35F8F5A461A6085F31088D2
:1006F0005346002B08D10028C6D10DB0F0BCBB4634
:10070000B246A946A046F0BD0A9B414618024B4698
:100710001843D047089009916268EFF3108572B6CC
:100720001368002BFCD00794BFF35F8F0899099AD8
:10073000002A48DB114303D0079B1B69002B5DD1C6
:10074000079B1B68D97B002907D04A0052181968FB
:100750008C4649466244033A51704A46DA734B4626
:10076000079A013BD168CA5C0132CA545B46079ABA
:1007700013615368BFF35F8F5A461A6085F3108880
:1007800082E700230026984600279A460020A7E724
:10079000002901D100289BD10021200000F0F8FAA7
:1007A00043461E685F689B68079A9A464346DB6823
:1007B0009846D3684B44013B1B780A931B020343C2
:1007C000136100208CE72369002BB9D033003C0073
:1007D0005B1A94411A002300A74219D89F421BD0EC
:1007E00059460491012103914946029141460191E4
:1007F000514607980091FFF7B5FEB7E700F0B0F853
:10080000089A099B06000F0092197B419942E5D98D
:1008100001225242D317E3E79642E1D90122524224
:10082000D317DDE7F80F0020FFFFFF0F10B5124CC4
:100830006368002B04D00A21104800F06FF910BD46
:1008400023000F4A1021206800F0C0F9032000F0B7
:100850007BF8032000F044F903200A4900F08AF8ED
:10086000FFF7EAFD084B9C46032360442375074BC2
:1008700080006060DC60DEE77C0100200C1000205E
:10088000310500106506001040000034F80F00200C
:10089000F0B5D6464F464646C0B5EFF305833F2236
:1008A000134018001038EFF3108C72B6204D2A68F0
:1008B000002AFCD0BFF35F8F0122110081401D4C44
:1008C000884661631C4917000E788A463100C14092
:1008D0000F400A4209D1BFF35F8F2F608CF310885D
:1008E000E0BCBA46B146A846F0BD14498200646A2D
:1008F00051588C420FD3124BD25843469E43534615
:100900001E70BFF35F8F00232B608CF31088002ACA
:10091000E6D09047E4E70B4A9B00904643441A68B0
:100920001A60BFF35F8F00232B608CF31088D7E72A
:10093000280100D0004005402A100020101000209F
:100940006C0F0020D03F054010B50100024A03485B
:10095000FFF73AFD10BDC0463455001028100020A6
:10096000034B596A0A00986A596A8A42FAD1704759
:100970000040054070B504000D00EFF3108672B61C
:100980001A4A1368002BFCD0BFF35F8F002D1BD0D9
:10099000200000F0E1FC164981420AD0200000F05E
:1009A000E3FC0121200000F0C5FC0123A340114A13
:1009B0001360114BA400E550BFF35F8F00220B4B77
:1009C0001A6086F3108870BD0B4BA200D55001222F
:1009D000A2400A4920000B7893430B70044900F0B1
:1009E000EDFC0021200000F0A5FCE5E7280100D087
:1009F00091080010386005406C0F00202A1000207C
:100A0000F0B54F46D6464646C0B507002F4C616A42
:100A10000D00A66A616AA942FAD18B4208D805D0B6
:100A20000120E0BCBA46B146A846F0BDB242F7D9B3
:100A3000EFF3108A72B6264801680029FCD0BFF394
:100A40005F8F0125BD402349204C8846097889469F
:100A50002943C9B28C46414660460870391D1E487C
:100A6000890065630A51B9000B50216A00202942B0
:100A700019D0616A0800A66A616A8142FAD18B4284
:100A800019D801D1B24216D8CC451DD00F4B1F202A
:100A90001D625D6301230740BB40104A1E3813608E
:100AA00043464A461A70BFF35F8F0022084B1A6014
:100AB0008AF31088B5E70020BFF35F8F0022044B54
:100AC0001A608AF31088ACE70120ECE7004005408B
:100AD000280100D02A1000201010002080E200E041
:100AE000EFF3108C72B60A490B68002BFCD0BFF3F1
:100AF0005F8F01238340074A0748136202789A43B5
:100B00000270BFF35F8F00230B608CF31088704777
:100B1000280100D0004005402A100020024B9C46CE
:100B200061448900016070474000003410B5040042
:100B3000FFF782FC01002000FFF7F0FFFF23237185
:100B4000BFF35F8F10BDC04610B50400FFF774FC03
:100B500001002000FFF7E2FFFF23A380BFF35F8FB8
:100B600010BDC04670B5050014001600002915D050
:100B70000C00002A12D080686B689847296800280A
:100B80000ED073009B196200033B1219CB18033A75
:100B90009C7088188A5C002A15D10670200070BDF0
:100BA00063001B197200033B9219CB18033A9E7025
:100BB00088188A5C002A02D104703400EEE75A706B
:100BC00004703400EAE75A700670E7E730B58360D6
:100BD0000023CCB243730133047342608373C47344
:100BE0000D000068012C06D9421C0133DBB21370E2
:100BF00003329C42F9D1FF2129404B0059180023B0
:100C000040180338437030BDF8B5CE46474606005D
:100C10000C0080B5002907D04D0003686D18033D16
:100C20005A195778002F04D12000C0BCB946B046ED
:100C3000F8BD7900C9190339884643445978894673
:100C400000215970517073683A00210080689847FC
:100C50003368002814D042469A18947059195B5D85
:100C6000002B00D053700F70270049463000FFF76B
:100C7000CBFF390002003000FFF774FF0400D3E718
:100C8000424641465D19AF709A185B5C002B00D05C
:100C90006B701470E9E7C046F0B557464546DE462E
:100CA0004E46E0B50D006B0001685B19DF1E0400C5
:100CB000C85D83B00192CA1900284CD043001B18AC
:100CC000033BCB185E78B446002E16D1019E002E51
:100CD0003ED0E67B002E04D073009B19CB18033B5B
:100CE0005D70E57300282FD10023537003B0F0BC72
:100CF000BB46B246A946A046F0BD72006244033A24
:100D000089184A78904600224A7091465A7001002C
:100D100032002000FFF726FF43468246002B07D013
:100D20005B0021684344033BCB185A78002A16D154
:100D3000424651462000FFF715FF2168019BCA1962
:100D4000002BC6D10028CFD043001B18033BCB1883
:100D500000219970C8E7019B002BBAD1C4E750006D
:100D600080180338091848788346484648705870F8
:100D700041462000FFF7F6FE594680462000FFF767
:100D800043FF414602002000FFF7ECFE8046CFE71C
:100D9000F0B557464546DE464E46E0B583B0019174
:100DA000457B04006B0000685B19DF1EC15DC21942
:100DB00000294ED04B005B18033BC3185E78B44645
:100DC000002E18D1019E002E40D0E67B002E04D0CC
:100DD00073009B19C318033B5D70E573002931D183
:100DE000002328005370617303B0F0BCBB46B246C9
:100DF000A946A046F0BD72006244033A80184278CA
:100E000090460022427091465A7020003200FFF74F
:100E1000A9FE43468246002B07D05B00216843446D
:100E2000033BCB185A78002A17D14246514620007E
:100E3000FFF798FE019B01002068C219002BC4D166
:100E40000029CDD04B005B18033BC31800209870DD
:100E5000C6E7019B002BB8D1C2E7500080180338C9
:100E60000918487883464846487058704146200023
:100E7000FFF778FE594680462000FFF7C5FE414641
:100E800002002000FFF76EFE8046CEE770B504003A
:100E900000292CD0437B8B422ED005684800401897
:100EA000033828188278002A21D053009B18033B6E
:100EB000EA5CEE188A4202D11BE0002A08D05300F7
:100EC0009B18033BEB185A788A42F6D142785A7045
:100ED00000230122837043702000FFF7DDFE617B59
:100EE00002002000FFF73EFE6073012000E00020BA
:100EF00070BD43783370EBE701221900FFF7CCFE99
:100F000060730120F4E7C0462C4B2D4A70B51A607F
:100F10002C4A2D4B2D491A6014008B689C43FBD141
:100F20002B4D2C4EB54208D2013E761BB60808CD9B
:100F3000984723000134B342F9D100F097F8264ACC
:100F4000214B1A60214A9368DB43DB01DD09002B4A
:100F5000F9D14022214B224C224E9A675A671A67D8
:100F6000DA66B44208D223682000002B20D008346F
:100F7000FFF7EAFDB442F6D31B4E1C4CC022A16819
:100F8000300000F01DFDA660FFF748FA00F04AFBB4
:100F9000FFF74CFC164C174EB44208D2013E361BEC
:100FA000B60808CC98472B0001359E42F9D170BD98
:100FB0000834FFF7BBFDB442D5D3DDE700E00040C5
:100FC000BFCDFBFEFE7F3C0000F0004000C00040B3
:100FD000700A0020800A0020FFFFFF0100F001409E
:100FE000680A0020700A00200000002000ED00E0E8
:100FF000800A0020840A0020094A030010680028A3
:1010000005D00849C3188B4207D8136070470648BB
:101010000449C31810608B42F7D901204042F5E71C
:10102000F00F0020000004202C10002000BEFDE77F
:101030000FB400B5084883B000F0F8FD049B002B06
:1010400007D005A91800019100F076FB034800F0D5
:10105000EDFD00BEFDE7C046585500106855001074
:1010600010B50148FFF7E4FF6C55001030B50C20B7
:1010700083B000F03DFBFFF7C9F900280ED0944B78
:10108000944A1A605A609A60DA601A615A619A61E9
:10109000DA611A62904A5A6203B030BD8F4CA06781
:1010A00000F02EFB01228E4B1A60636C012BFCD1E9
:1010B00003228C4B1A60894A936B012BFCD10224CA
:1010C0000121894A89480533009400F0BDFA0523BF
:1010D000874A01218748009400F0B6FA864B5A6887
:1010E000FF2A02D8802252005A608022784C7D4B21
:1010F00021691201804D1A60002905D0606900F055
:101100006DFB01300138FDD1E0217B4B02201A68D4
:101110001140802252012A4311601968484003217E
:101120000140116004219A681142FCD08022802184
:1011300092012A4309011160802252005A606F4BCC
:1011400023616F4B5968FF2900D85A600321644A14
:101150006B4B116002399A681142FCD0E0201A688A
:101160001040802252011A43106018684840032141
:1011700001400220116062498A681042FCD080223E
:1011800092011343802212011A6080225D4B5200AB
:101190004A6063615C4B5968FF2900D85A6080221D
:1011A0005A4BE1691201584D1A60002905D0606957
:1011B00000F014FB01300138FDD1E02252490B68E8
:1011C0001A4080235B012B431A60802380229B01FD
:1011D0002B4312011A6080223E4B52004A60E361A9
:1011E0004B4B5968FF2900D85A608022494B216A2D
:1011F0001201474D1A60002905D0606900F0EEFA2F
:1012000001300138FDD1E02241490B681A408023AA
:101210005B012B431A60802380229B012B43120128
:101220001A60802380225B004B602A4BD20223622B
:10123000394B5968914200D25A608022374B616A1B
:101240001201354D1A60002905D0606900F0C6FA18
:1012500001300138FDD1E0222F490B681A4080236C
:101260005B012B431A60802380229B012B431201D8
:101270001A608023DB024B60174B6362284B5A686D
:10128000FF2A02D8802252005A608022254BA16991
:101290001201234D1A60002905D0606900F09EFA02
:1012A00001300138FDD1E0221D490B681A4080232E
:1012B0005B012B431A60802380229B012B43120188
:1012C0001A6080235B004B600E4BA361E4E6C046CE
:1012D0007C0F0020006CDC021BB700000080004087
:1012E0003CB0004030B00040002F68590080024000
:1012F00000389C1C00C0024030800040001BB7003A
:101300003C800040405973075480004054B0004076
:101310006080004060B000406C8000406CB00040D5
:101320004880004048B00040014B8000C0587047E2
:101330007C0F002001238340002904D0034A13605E
:10134000034A13607047034A1360FBE780E200E042
:1013500000E100E080E100E0024B10309B6880007B
:10136000C058704700ED00E070B50D00EFF3108637
:1013700072B60F4A1368002BFCD0BFF35F8F0D4B82
:1013800010309B6884001B590B4A934203D09D4246
:1013900001D0FFF765FE074B9B681D51BFF35F8FC0
:1013A000BFF35F8F0022024B1A6086F3108870BD76
:1013B000240100D000ED00E0CD010010F0B5DE46C4
:1013C00057464E464546E0B50C0083B0EFF3108A11
:1013D00072B65A4A1368002BFCD0BFF35F8F1022FD
:1013E000914681444A46564B96009B689D59554B01
:1013F00098469D4205D0A54216D0534FEB1B2F2B8C
:1014000014D94F4B9B689D51BFF35F8FBFF35F8F24
:1014100000224A4B1A608AF3108803B0F0BCBB4626
:10142000B246A946A046F0BD1D00EAE7012383406D
:101430009B465A46454B1B681A4000925A46444BFD
:101440001A60BFF35F8FFEF70EFF0190002803D0F4
:10145000814501D0FFF704FE01232A009A431300BF
:101460003C49DB1B5B415943090D93689C4208D101
:101470005AE043001B189B00FB189868A04211D04B
:101480001A00062010560028F3DA009B002B05D026
:101490005A46314B1A602D4B1A60B2E75A462C4B14
:1014A0001A60AEE706201856002821DB420011180A
:1014B00089007C188846A1689960E179D971062174
:1014C0006156997100291FDBA488F91A6405241557
:1014D00044440919E0240905490D24022143998057
:1014E00012181E4B9200BF181A781870BA71CCE708
:1014F000019800280BD1FF30907119489080174A4D
:10150000107811709871C0E7BD210902E7E7154A0C
:101510001549D21A083A5002400D014399801349E7
:1015200052080A43DA80B0E706201056130000285C
:10153000BCDA019A002AEAD14546E0E7240100D04E
:1015400000ED00E0CD010010A401002000E100E06A
:1015500080E100E0AAAA000080E200E0291000205B
:1015600000BDFFFFDE01002000F0FFFF00F8FFFFDD
:10157000F8B5012504000543FEF775FEEFF3108C66
:1015800072B6214A1368002BFCD0BFF35F8F1F4E49
:101590002100B7681E4A1F4B891A49414B431B0D56
:1015A00059B28300F858A8421CD00623D3568B4268
:1015B0001CD01223D3568B4222D01E23D3568B42EB
:1015C00020D02A23D35603208B4210D0124B1A78F6
:1015D0001970A271BFF35F8F00220B4B1A608CF35E
:1015E0001088F8BDB2680D48D050EFE700204300E6
:1015F0001B189B00D218FF239371094B9380E5E7DA
:101600000120F4E70220F2E7240100D000ED00E021
:10161000A4010020AAAA000029100020CD0100107A
:1016200000BDFFFF054B064A1360064A1360536076
:101630009360D360136153619361704780808080B1
:1016400000E400E004E400E0F0B5C646040000B5A4
:101650000C2090461F000E0000F0C0F84101091A4E
:101660008D01691AC90009188901404600F0B6F8D1
:10167000069B3F041A0323681743002B22DB184BF9
:10168000184DE21853425A4180235B019C461203D5
:10169000154B62441A60154B1A601100AB689943F0
:1016A000FBD1C022231D92011A4321232660A06092
:1016B00013602368002BFCDA0823E760136080BC0A
:1016C000B846F0BD3F2322681340B342D7D1A36888
:1016D0001B051B0D8342D2D1E368002FCFD1EEE76B
:1016E0000040FDBF00C0004000E0004000F00040AE
:1016F0008023024A9B000343D36270470080054069
:10170000AA23064A1B0113602F230549D360054B0A
:1017100019605368002BFCDA7047C0460040024055
:1017200000B0FA000060024010B5002800D110BDE2
:1017300000F02CFAFBE7C04610B5094A0300146814
:1017400084B0002C08D0012200910648524203A91F
:10175000A047012004B010BD00F068FA0020F9E7AE
:10176000F40F00202917001001480421014B1847ED
:10177000F001002099170010142310B501001888FB
:1017800004331B88984710BD162310B50100188834
:1017900002331B88984710BDF8B54746CE4680B542
:1017A0000F1E19D014239946043304000025012686
:1017B00098464B461888434621681B88984701C4C1
:1017C000431E9841013540420640AF42F1D13000FE
:1017D000C0BCB946B046F8BD0126F8E7114A936F80
:1017E0009B0813D210665166002905D0FFE7FFE77A
:1017F000FFE7516F106F704704B5002801D000203B
:10180000C04303F079FE002104BDC046F0B5146E5C
:10181000556E576F166FFFF7E5FF146655665767ED
:101820001667F0BD000000D0132370B51D78012DA0
:1018300015D010DD1C48FFF7A7FF1C4C01008022CB
:10184000200000F0BDF8022D06D01948FFF794FFE4
:10185000184B186070BD154C174BA364F5E7164B79
:10186000124C23606360A360E36023616361A36142
:10187000E36123626362A362E36223636363A3633E
:10188000E36323646364A364E36423656365A3651E
:10189000E36523666366A366E36623676367A367FE
:1018A000E367A364D1E7C04653440000D80B00208F
:1018B0004C33000008100020BD18001007B560462A
:1018C00001880A0A0230DF2AFAD1C9B2820804D399
:1018D000028840880004104300E00068014A50502C
:1018E000039007BDD80B0020132310B512481C78B5
:1018F000FFF74AFF0100012C0AD003DD80220F48C8
:1019000000F05EF80E48FFF737FF0E4B186010BD71
:101910000A4C5422200000F053F80B4B6365A3657A
:10192000E36523666366A366E36623676367A3676D
:10193000E3672362E361E5E753460000D80C00202B
:101940004C330000081000204D19001007B5604608
:1019500001880A0A0230DF2AFAD1C9B2820804D308
:10196000028840880004104300E00068014A50509B
:10197000039007BDD80C002010B5040003F056F901
:10198000002804D0034B04199C4200D810BD024823
:10199000FFF74EFB000004207855001010B503F04F
:1019A0004FF910BD01480421014B184700020020E7
:1019B00099170010014B1B68184700000002002017
:1019C000014B5B681847000000020020030010B5BF
:1019D000080011001B68984710BDC046F0B5464688
:1019E0004F46D646C0B5437C80460E001700002BFC
:1019F00046D0002A3FDD4B1E9946244B012500248A
:101A000000209A460DE04B461B5D0D3B5A42534168
:101A1000325DDBB20A2A0BD02B00013401359F4224
:101A20001ADD002CEFD14346325D1B7C0A2AF3D12C
:101A3000002BF1D1A04204DA4346211A1B6830186A
:101A40009847434650461B680221984701342800B6
:101A50002B0001359F42E4DC874204DD4346391AFE
:101A60001B6830189847F619013E33780D3B5A42EF
:101A7000534142461374E0BCBA46B146A846F0BD95
:101A80000368110030009847F5E7C046E85500109C
:101A9000F0B557464E464546DE461C00D023E0B51D
:101AA0001B061F68344B83B006000D00180001A907
:101AB00091469A4603F028FD8046002808D1019BF4
:101AC0007FB29F4204D0504603F026FD0123984682
:101AD0006B1C03D1300003F0A1FB0500002C27D1C3
:101AE000264F274B1C68002C18D04B46002B21D1C9
:101AF000244B994602E0E468002C0FD02368002BA9
:101B0000F9D04B461B68002B01D0A342F3D1200033
:101B10002A003100B847E468002CEFD14346002B7F
:101B200025D103B0F0BCBB46B246A946A046F0BDE5
:101B3000154FD6E7134B99460A239B4602E0E4680B
:101B4000002CEBD02368002BF9D04B461B68002BF0
:101B500001D0A342F3D12A0031002000B8475A46F1
:101B60006B4620001A7101A90122B847E7E75046E9
:101B700003F0BAFCD5E7C046680A0020DD19001062
:101B8000E40F0020EC0F0020CD190010F0B5CE4678
:101B9000474680B583B06B46DE1CD02330701B06F1
:101BA0001C681F4B804601A91800994603F0ACFC45
:101BB000071E20D01B4B1C68002C28D01A4D02E0B9
:101BC000E468002C0FD02368002BF9D02B68002B81
:101BD00001D0A342F4D1200001223100FFF7FEFE24
:101BE000E468002CEFD1002F11D1404603B0C0BCF7
:101BF000B946B046F0BD019B64B29C420BD048464A
:101C000003F08AFC074B01271C68002CD6D14846FC
:101C100003F06AFCE9E7034B1C68002CCED1E4E733
:101C2000680A0020E40F0020EC0F002070B50400CB
:101C300003F0F4FA00230100050001222000FFF761
:101C400027FF084B1C68002C06D06368002B05D0CA
:101C50009847E468002CF8D1280070BDE468002C97
:101C6000F3D1F9E7E40F00200D4A1368002B13D0DD
:101C7000834202D109E0984208D01A00DB68002BA9
:101C8000F9D1002900D0D06070471A000029FBD19B
:101C9000DB68D360C160F7E70029F5D01060F3E797
:101CA000E40F002010B500F043F810BDF0B50D1E94
:101CB00015DD0E4B0D271A680D4B4519D3185942E7
:101CC0004B410C495B005E5E20210478A64207D0A0
:101CD00093691942FCD101301460A842F5D1F0BDDE
:101CE00093691942FCD11760F2E7C0462410002026
:101CF0000080FCBF2010002030B504000D1E12DD56
:101D000000201021094B013C1A689369194208D13F
:101D1000013093691942FCD1136823548542F4D1F0
:101D200030BD0028FCD103204042F9E724100020F8
:101D3000E12110B50B4B0C481B780C4B49021B786A
:101D40000B4B1860FEF784FB02210020FEF706FB18
:101D500002210120FEF702FB01210648FFF784FF64
:101D600010BDC0468056001000400340845600104D
:101D7000241000201002002070B5104C14E001F077
:101D800089FD2369DD68281D01F040FEA369013B40
:101D9000A3612368013B236001F088FD286B01F0FB
:101DA00029FD280001F026FD2368002BE7D1E36917
:101DB000012BF9D901F062FDF6E7C046F40D0020D1
:101DC000F8B504001A4D0E002F686868043001F061
:101DD0001DFE631C14D06B683C195C60A74209D8D7
:101DE000286A6968043101F0F9FD6B6AA34200D9E1
:101DF0006C62F8BDE8696968043101F0EFFDF8E74D
:101E0000002EE8D06A68EB68996893606A68D160D0
:101E10006A68996804324A606A6804329A602A00E3
:101E20006B6808325A61AB680133AB60E1E7C046CA
:101E3000740E0020F0B5DE46454657464E464349EF
:101E4000E0B50D686B1C9B460B60002B0CD10B6A38
:101E5000CA690A62CB618B6A01338B620B6A1B68A9
:101E6000002B69D1013B4B6200224B6A94469B4593
:101E700056D30B6A1B68002B4FD000239A46344B75
:101E800099461C234B44984636E0504614685861E6
:101E9000013C14609A6A002A0ED0DC69186A556801
:101EA000A060186A44601C001834A54249D050460E
:101EB00014689862013C1460DC6ACA6A944200D9D2
:101EC000CC624846A200121992008018076A424468
:101ED000BD689F60DD60BD686E60BE605A61C369A9
:101EE0000133C3614B68DB6A9C4201D301239C46EA
:101EF0000B6A1B68002B10D00B6ADB68DB685A6822
:101F0000934520D35A699868DC681E1D8460606020
:101F10005068B042B9D15460B7E701235B424B62CD
:101F20000B6B002B01D001239C466046F0BCBB46E6
:101F3000B246A946A046F0BD0B6ADB681B684B623F
:101F400092E75060B3E74A62EAE7C046740E0020A9
:101F5000F40D0020F8B5CE4647469846930080B56C
:101F6000070018000D00994601F038FC061E00D14C
:101F7000C2E0682001F032FC041E00D1C3E06822F8
:101F80000021FFF717FD484607230438266336185B
:101F90009E43002D5FD034232A78E2542B78002B07
:101FA00056D035236A78E2546B78002B50D0362314
:101FB000AA78E254AB78002B4AD03723EA78E2546F
:101FC000EB78002B44D038232A79E2542B79002B6C
:101FD0003ED039236A79E2546B79002B38D03A230A
:101FE000AA79E254AB79002B32D03B23EA79E25450
:101FF000EB79002B2CD03C232A7AE2542B7A002B4D
:1020000026D03D236A7AE2546B7A002B20D03E23FF
:10201000AA7AE254AB7A002B1AD03F23EA7AE25430
:10202000EB7A002B14D040232A7BE2542B7B002B2D
:102030000ED041236A7BE2546B7B002B08D04223F5
:10204000AA7BE254AB7B002B02D04323EA7BE25411
:1020500043230022E254089D042D5AD8231D180062
:10206000E562994601F0AAFC2000183001F0A6FCB8
:1020700005235D1B4246390030002461A56164627E
:1020800001F0E8FB099B2060002B00D01C6001F0F0
:1020900001FC394D394EAB690133AB617368002BDC
:1020A00040D0336F002B36D0E26A736F0133736711
:1020B000F36A934200D2F2624F4693009B189B0052
:1020C000E9180A6A1C359068ED18E060CB699068E1
:1020D0000133A260476097606561CB6101F0E6FB68
:1020E000336F0125002B09D07368DA6AE36A9A42DC
:1020F00004D201F0C3FB01E001256D422800C0BC01
:10210000B946B046F8BD0125300001F073FB6D42C1
:10211000F4E70425A2E77368E26ADB6A9342C4D855
:102120007460C2E77460AB69012BBDD180232F00BE
:1021300098461C37A8443800143701F033FCB845E2
:10214000F9D1342398463700B0444046483701F06F
:1021500029FC380001F026FC30005C3001F022FC44
:10216000281D01F01FFC3000083001F01BFC434625
:102170003362F76198E7C046F40D0020740E00202A
:10218000F8B5040001F086FB214D002C31D0261D4E
:10219000300001F03BFCA36A002B03D02000183074
:1021A00001F034FC6B6F01336B676B68A34222D084
:1021B000184A9369013B93612B6A1B68002B15D069
:1021C0002B6ADB681B686B6201F070FB6B68A342D3
:1021D00005D0206B01F00EFB200001F00BFB2B6FF4
:1021E000002B02D06B68A3420ED0F8BD013B6B629E
:1021F000EAE76C68CBE7074F3100381D01F0E2FBDE
:102200003B6801333B60DFE701F038FBEDE7C04698
:10221000740E0020F40D002010B5040001F03AFB0C
:10222000002C04D0E46A01F041FB200010BD014BFA
:102230005C68F7E7740E002010B5040001F040FB65
:10224000002C04D0E46A01F03FFB200010BD014BDC
:102250005C68F7E7740E0020F0B5C64604000D0078
:1022600000B5042900D9042501F014FB002C2BD063
:10227000E36A9D421AD0254F1DD87E68361B7242F4
:102280005641A269E562002A02DB05214D1BA561CA
:102290001F4D9A002900D3181C319B006269CB188E
:1022A0009A4214D0002E01D001F0E8FA01F0FEFAB3
:1022B00080BCB846F0BD7A68A24225D000267A6874
:1022C000D26A95427641DCE7104B5C68D0E7231D6B
:1022D0001800984601F09AFBE26AFB6A9A4200D91C
:1022E000FA62474693009B189B00E9180A6A1C355E
:1022F0009068ED18E060CB6990680133A260476098
:1023000097606561CB61CDE70026BAE7740E0020C7
:10231000F40D002070B5040001F0BCFA4B4D002C08
:1023200047D0261D300001F071FBA36A002B03D0BB
:102330002000183001F06AFB28003100083001F05D
:1023400041FB6423E25C012A01D10022E2546523AF
:10235000E25C012A01D10022E2546623E25C012AF8
:1023600001D10022E25401F0A1FA2B6F002B03D11E
:102370006B68A3420FD070BD01F08CFA2B6A1B680A
:10238000002B18D02B6ADB681B686B6201F08EFA99
:102390006B68A342EFD12A6F002A11D12C4BA86899
:1023A000996988420AD0AA6F002A0CD001232B63B6
:1023B000E1E76C68B5E7013B6B62E7E76A60DAE783
:1023C00001F05CFAD7E72A63E96A8A0050188000B6
:1023D0001818C069002825D14C1EA20010198000D1
:1023E0001818C06900282ED18C1EA2001019800078
:1023F0001818C069002826D1CC1EA2001019800030
:102400001818C06900281ED10C1FA20010198000E6
:102410001818C069002816D105398A0050188000A4
:102420001818C069521892009C182300206A24339F
:1024300040682062984203D0C3686B60E9629AE703
:1024400040682062F8E72100ECE7C046740E0020E7
:10245000F40D0020F8B51E4D04006B6883420AD0CD
:10246000002808D001F016FA2B00626908339A425E
:1024700002D001F01BFAF8BD2A00A36A5C32934235
:10248000F7D0002BF5D1261D300001F0BFFAE16A2C
:10249000EB6A994200D9E9620E4B8A009C465218B9
:1024A00092009F18386A8368A060E36083685E606A
:1024B00063461C339B1886606361FB690133FB61D3
:1024C0006B68DB6A9942D4D301F0D8F9D1E7C046F2
:1024D000740E0020F40D0020F0B5C64600B50400CF
:1024E00001F0EEF9224E626933000833050000273F
:1024F0009A4206D0280001F0E7F9380080BCB846BF
:10250000F0BD3000A36A5C308342F3D0002BF1D1E0
:10251000B36F002B27D17368E26ADB6A9A4202D359
:10252000012301373363231D1800984601F06EFA2A
:10253000E16AF36A994200D9F1628A000D4B5218A0
:1025400092009E189C464346316A8868A160E0600C
:10255000886843608B6063461C339B186361F36932
:102560000133F361C6E72100183101F02BFAC1E70E
:10257000740E0020F40D0020F8B58020CE464746AA
:10258000800080B501F02AF9051E5FD0682001F0B7
:1025900025F9041E60D068220021FFF70BFA0723FB
:1025A0002563FD35FF359D43494B271D6363380087
:1025B00001F004FA2000183001F000FA052300228F
:1025C000A361280043492461646201F043F9424D4C
:1025D0002060EC6701F05EF9404EB3690133B361EE
:1025E0006B68002B43D02B6F002B39D0E26A6B6FE6
:1025F00001336B67EB6A934200D2EA6293009B1847
:102600009B00F1180A6A1C369068F618E060CB69E6
:1026100090680133A260476097606661CB6101F00A
:1026200045F92B6F002B04D06B68DA6AE36A9A4293
:102630004BD300F0C5FF012808D172B601235B42DD
:102640006B62002328672B6001F08AF9244B1B681A
:10265000C0BCB946B046F8BD280001F0CBF8F5E79C
:102660006B68E26ADB6A9342C1D86C60BFE76C605A
:10267000B369012BBAD11C23984664339946B04400
:10268000B144404601F08EF914239C46E044C8450D
:10269000F7D120339946A944484601F083F94823ED
:1026A0009846A844404601F07DF928005C3001F0CE
:1026B00079F9301D01F076F92800083001F072F93F
:1026C0004B462B624346EB6190E701F0D7F8B0E749
:1026D00049444C45791D0010740E0020F40D002073
:1026E0002402002010B572B60022024B1A6701F0D6
:1026F000C3F810BD740E0020024A936F0133936734
:102700007047C046740E0020F0B5D6464F46464688
:10271000C0B501F0BFF8464CA36F013BA367A36FA0
:10272000002B6BD1434B9A469B69002B66D0E36D1F
:10273000002B48D0002399461C3398461B3B9C46EF
:10274000D044A36EDB68D869196A9A6A81604860D0
:1027500018005668183086425FD049469962116861
:10276000013911605A699868D9681F1D81604860F5
:102770005068B8424FD0116801391160E26AD96AD5
:10278000914200D9E16250468A00521892008618A0
:10279000306A424485689860DD6085686F60876054
:1027A0005A61F3690133F3616368DB6A99422ED39E
:1027B00063462363E36D002BC3D1236A1B68002BA0
:1027C0002DD1013B63621C4E3568002D13D00127CB
:1027D00007E0FFF72FFB002800D02763013D002D05
:1027E00008D0A36F002BF4D03368013D0133336070
:1027F000002DF6D13560236B002B15D1002401F09C
:1028000055F82000E0BCBA46B146A846F0BDE36DDD
:10281000002B96D1D1E75160ADE751609DE7236A67
:10282000DB681B686362CEE701F028F80124E6E765
:10283000740E0020F40D0020F40E0020F8B51D4E9B
:10284000B36F0133B3670268356854180460AA4255
:1028500008D9A24208D80025FFF756FF00281AD051
:102860002800F8BDA24201D8A542F4D237687068AA
:102870007D1B043001F0CAF8736864195C60A742DC
:102880000CD9F06971680125043101F0A7F8FFF750
:102890003BFF0028E4D100F0F1FFE1E7306A716806
:1028A0000125043101F09AF8736A9C42D4D2746213
:1028B000D2E7C046740E002070B5041E16D0124D2B
:1028C000AB6F0133AB672E686868A419043001F060
:1028D0009DF86B685C60A6420BD9E86969680431B1
:1028E00001F07CF8FFF710FF002801D100F0C6FFCF
:1028F00070BD286A6968043101F070F86B6A9C4207
:10290000F0D26C62EEE7C046740E0020014B1868EE
:102910007047C046740E0020014B18687047C046CF
:10292000740E0020014B98697047C046F40D0020DA
:10293000002801D034307047014B5868FAE7C04690
:10294000740E0020084A10B5936F0400013393679A
:1029500000F0A0FF054B18680019186000F0A6FFF2
:10296000FFF7D2FE10BDC046740E0020F40E00200A
:10297000064B10B59B6F002B02D1FFF75BFA10BD21
:10298000034A0020136801331360F8E7740E002037
:10299000F40E0020264830B5836F002B02D00123AF
:1029A000036330BD0363C16A224A8B005C18A40034
:1029B0001419E469002C25D14D1EAB005C19A4004C
:1029C0001419E469002C2BD18D1EAB005C19A400F6
:1029D0001419E469002C23D1CD1EAB005C19A400AE
:1029E0001419E469002C1BD10D1FAB005C19A40065
:1029F0001419E469002C13D105398B005C18A4006C
:102A00001419E4695B189B00D5182B002C6A243339
:102A100064682C629C4205D0E3684360C162C0E7F1
:102A20002900EFE76468E3682C624360C162B8E79D
:102A3000740E0020F40D002070B50D001A4C616872
:102A4000183100F0CBFF26686068043000F0DEFF2C
:102A50006B1C14D06368AD195D60AE4205D9E069A6
:102A60006168043100F0BAFF70BD206A616804310A
:102A700000F0B4FF636A9D42F6D26562F4E76268D3
:102A8000E368996893606268D1606268996804320B
:102A90004A60626804329A602200636808325A61B0
:102AA000A3680133A360DFE7740E0020802370B5B4
:102AB0001500244C1B0662680B43936143686268EF
:102AC0009968D361626811626268996818324A60D5
:102AD000626818329A606368986203680133036021
:102AE00026686068043000F091FF6B1C14D06368A6
:102AF000AD195D60AE4205D9E0696168043100F04E
:102B00006DFF70BD206A6168043100F067FF636A81
:102B10009D42F6D26562F4E76268E3689968936063
:102B20006268D1606268996804324A6062680432FF
:102B30009A602200636808325A61A3680133A36077
:102B4000DFE7C046740E002070B5254C43680D00C9
:102B500061689E68CB6161680E6261689E68183129
:102B60007160616818319960636898620368013325
:102B70000360002A19D023686068043000F046FF23
:102B80006268E368996893606268D1606268996876
:102B900004324A60626804329A6022006368083234
:102BA0005A61A3680133A36070BD26686068AD19DF
:102BB000043000F02BFF63685D60AE4209D8206AE4
:102BC0006168043100F00AFF636A9D42ECD26562DD
:102BD000EAE7E0696168043100F000FFE4E7C0461D
:102BE000740E0020C368F0B5DB68D869196A9A6A68
:102BF00081604860180054681830844247D0002132
:102C00009962116801391160264A916F00292DD10E
:102C10009868DC6859698460DC681F1D60604868DA
:102C2000B84236D0086801380860D06AD96A814253
:102C30002BD81D488C0084466418A4000619356AF8
:102C4000A8689D60D860A868476060461C3000197D
:102C5000AF605861F3690133F36153680020DB6AA8
:102C60008B4202D2012301301363F0BD116E8C68D8
:102C7000D9611C628C686060886011005C31996267
:102C8000D16D0131D165D96AE7E7D162D1E75160F1
:102C9000B5E708684C6001380860D06AD96A81429B
:102CA000C7D9F2E7740E0020F40D002080231B0624
:102CB000F0B50B438468416802690360C3688C60A7
:102CC000846861605168814232D0002101611168DD
:102CD000D8680139116099685A698860D8681F1DE1
:102CE00041605168B94225D01168134D0139116016
:102CF000D86AEA6A904200D9E862104A8100944694
:102D0000091889005618346AA2689C60DA60A268C3
:102D1000576062461C325218A7605A61F36901334A
:102D2000F3616B68DB6A984201D901232B63F0BD24
:102D30005460CAE75060D7E7740E0020F40D0020FD
:102D400010B5040000F0A6FD034B9A6A1B682260D0
:102D5000636000F0ABFD10BD740E0020024B9A6A58
:102D60001B68026043607047740E0020F8B50D00C8
:102D7000040000F08FFD104A2B681168581C19D010
:102D8000966A27686068B74208D0884206D8002350
:102D900001242B6000F08AFD2000F8BD0E1AB3421A
:102DA000F5D95B1A1B182B60936A23601368636064
:102DB0000024EFE70024EDE7740E00200122014B10
:102DC0001A637047740E0020042905DC002804D023
:102DD0001031890041184A607047014B5868F7E785
:102DE000740E0020042909DC002804D01031890069
:102DF000411848687047024B5868F7E70020F9E728
:102E0000740E0020014B58687047C046740E0020B5
:102E1000044B01201A6F002A03D0986F4342584197
:102E200040007047740E0020044B5A68596890693E
:102E30005A680523C96A5B1A93617047740E0020B3
:102E4000F0B50400C646250000B51700884600F01E
:102E500021FD194E16357368AA00D358002B06D1F0
:102E6000012273681B1964331A70002F1DD100F002
:102E70001DFD00F00FFD7368AD00EF58002F05D069
:102E80004346002B0DD000227368EA50002370687F
:102E900000196430037000F009FD380080BCB846AA
:102EA000F0BD73687A1EEA50F0E701213800FEF7A2
:102EB00087FF00F0E3FCDAE7740E0020F0B5C646A9
:102EC000040000B51F008846160000F0E3FC214D09
:102ED0006868001964300378022B0ED041466B6895
:102EE000A2009B189A6D8A439A6501226B681B1990
:102EF00064331A70069B002B24D100F0D7FC00F03D
:102F0000C9FC002F05D023006A6816339B009B582C
:102F10003B606B6800271B1964331B78022B06D1BA
:102F20006B68A2009B189A6D0137B2439A65002323
:102F3000686804196434237000F0B8FC380080BC61
:102F4000B846F0BD01211800FEF73AFF00F096FCEC
:102F5000D3E7C046740E0020F0B5C64600B5069D06
:102F600006000C0090461F0000F094FC002D04D0D9
:102F7000230016339B009B592B60022331196431C7
:102F80000D780B70EDB2032F16D011D8012F46D05B
:102F9000022F04D1A4003419A36D0133A365012DC0
:102FA00010D0012400F082FC200080BCB846F0BDA7
:102FB000042FF4D1022D3BD043461634A400A35174
:102FC000012DEED17369B168F268371D8A605160D6
:102FD0005968B9422ED01A68174D013A1A60F16A41
:102FE000EB6A994200D9E962144B8A009C46521858
:102FF00092009C18206A8368B060F36083685F6009
:1030000063461C339B1887607361E3690133E36196
:103010006B68DB6A9942C4D900F030FCC1E74746CF
:10302000A4003419A26D1743A765012DB9D1C9E7D2
:103030000024B7E75A60CEE7740E0020F40D00209C
:10304000F8B54746CE4680B5089F06000C0090466E
:103050001D0000F035FC002F04D0230016339B0028
:103060009B593B600222331964331F781A70FFB2F8
:10307000032D17D012D8012D3BD0022D04D1A4006E
:103080003419A36D0133A365012F11D0012400F081
:103090001BFC2000C0BCB946B046F8BD042DF3D1DE
:1030A000022F59D043461634A400A351012FEDD16D
:1030B0002B4B9A6F002A25D01A6E9168F26131620B
:1030C000310094681831616091601A005C32B2621C
:1030D000DA6D0132DA65F26A5968C96A9142D5D26D
:1030E000099A002A02D0110001220A6001221A6303
:1030F000CCE74346A4003419A26D1A43A265012F00
:10310000C4D1D5E7B468F1687269A1604C60341D20
:10311000A0465468444521D0116801391160D96A2C
:10312000F26A8A4200D9DA620E4994008C46A418E9
:10313000A1008946674644464F443D6AA968B56088
:10314000F160A9684C6061461C314944AC60716112
:10315000F9690131F961BFE7002498E75160DBE7C5
:10316000740E0020F40D0020F0B5D64646464F46BA
:103170000C000500C0B5160000F0A2FB02212B19BF
:103180006433A4001A782C191970A36D0133A36558
:10319000012A06D000F098FBE0BCBA46B146A8462A
:1031A000F0BD274B9A6F002A1AD01A6E9168EA6117
:1031B0002962290094681831616091601A005C32BC
:1031C000AA62DA6D0132DA65EA6A5968C96A91421F
:1031D000E0D2002E01D00122326001221A63D9E729
:1031E000AC68E9686A69A1604C602C1DA44654680B
:1031F000644522D0116801391160D96AEA6A8A42AD
:1032000000D9DA620F4994008946A418A1008A46C1
:103210004946644651440F6A8846B968AF60E96020
:10322000B9684C6049461C315144BC6069614146F3
:103230004446C9690131E161C7E75160DAE7C04638
:10324000740E0020F40D002070B504000D0000285D
:103250000DD06419643400F01DFB23780025022B87
:1032600001D12570013500F021FB280070BD014B14
:103270005C68EEE7740E002070B504000D001600C7
:1032800000280BD000F006FBA8002018846D836D89
:10329000B343836500F00AFB200070BD014B5C68FE
:1032A000F0E7C046740E0020F0B54546DE465746AE
:1032B0004E46E0B5C04D87B02B681C68002C00D18D
:1032C000D6E0DB681C68FFF717FAFFF71FFB6B6897
:1032D0008146984200D2DAE06860844200D82EE14C
:1032E00000224B46E868E11A01F038FCFFF70CFABF
:1032F000002800D115E124239A460022E86803A99A
:1033000000F080FE0028D7D0039B0193002BF4DB54
:10331000059B98465B69002B03D04346181D00F0BF
:1033200075FBFFF7F3FA6B68834698420FD35B4651
:103330006B60039B092BE0D8A04A9B00D3589F46A3
:10334000012293435246A3542000236A98472B68D6
:103350001A68002A00D1E0E0DB68DC681E68231DE3
:103360001800994600F052FB53460422E35C1A42CF
:10337000E6D0A3692461F718F6436760B3420AD820
:103380003E00F643236A20009847A3692461FF1892
:103390006760B342F4D94946A86800F01FFBD3E741
:1033A00043465246985C01234246514644460343F5
:1033B00053549269049924618B1863605B4500D96A
:1033C000B2E05C46611A8A4200D9EFE0410714D4AA
:1033D00001235246984343469854434640461B6A4D
:1033E00098478AE75946CB1A934200D2D8E0404624
:1033F000036A984743469A69230041469C184C60EB
:103400000961A345EED29B4501D2A342EFD94346C1
:103410002868191D00F0E2FADFE7434652469B5C3C
:103420000122514693434246535466E7524643466F
:103430009B5C01225146134342465354049B414630
:1034400093615A469A184A6009615A4571D8002B0F
:1034500000D152E7A868043100F0C0FA4DE74346B6
:1034600052469B5C9A07DBD4404600F0C3F944E720
:10347000FFF742F9FFF74AFA6B688146984206D394
:103480004B466B60AB681A6853425A4129E72B6878
:103490001A68002A39D024229246203A93460AE03C
:1034A000012293435246A354236A200098472B6875
:1034B0001A68002A29D0DB68DC681E68231D180002
:1034C000984600F0A3FA53465A46E35C1A42E7D006
:1034D000A3692461F718F6436760B3420AD83E0037
:1034E000F643236A20009847A3692461FF186760A8
:1034F000B342F4D94146A86800F070FA236A20006C
:1035000098472B681A68002AD5D1AA68AB604B4649
:103510002A606B60FFF7F8F8EDE6AA68AB602A60F6
:1035200005E700F0ABF9E6E6594502D9994200D823
:103530004CE741462868043100F050FADDE6FFF719
:10354000E3F82B68DB68DE68331D1800984600F04E
:103550005DFA2422B35C59070ED401218B43B35486
:103560003000336A9847C6E64A46141BA34212D875
:103570003000336A98473C00B3693661E7187760DA
:10358000B945F1D2A14501D2BC42F1D941462868E2
:1035900000F024FAE4E74146A86800F01FFADFE7EC
:1035A0004346A868191D00F019FA16E74146A868B5
:1035B000043100F013FAA0E6F80E00202C5600109B
:1035C00070B582B000F066F9164CE368002B11D09C
:1035D00000F06CF9E3680020002B09D00323383495
:1035E000009380220023104910480194FEF7B2FC9A
:1035F00002B070BD2600250010363000243500F0E2
:10360000D1F9280000F0CEF900220C210A20266012
:10361000A56000F05DFAE0600028D9D0044901F00F
:103620009BF9D5E7F80E00205C560010A932001077
:1036300054560010F8B54546DE4657464E46E0B5AE
:1036400007002820884616001D0000F0C7F8041E59
:103650001BD024230022C25400F01CF91D4B9946B4
:10366000DB68002B18D000F021F94346A3610A9BC8
:103670002760E5612362201D00F0A0F9002E04D030
:1036800024220421A35C0B43A3542000F0BCBB46BE
:10369000B246A946A046F8BD10334B4418009B46DD
:1036A00000F080F924234B4418009A4600F07AF980
:1036B0004B465A461A6052460C219A600A20002254
:1036C00000F006FA4B46D8600028CCD0024901F041
:1036D00043F9C8E7F80E00205456001070B5134E99
:1036E0001C00F56884B0002D17D001910292039060
:1036F00005290ADCFFF78CFB022810D000230022EA
:10370000F06801A900F030FA05E00023220028004B
:1037100001A900F0B5FB04B070BD0020FBE7002359
:10372000F068089A01A900F01FFAF4E7F80E0020EB
:10373000014B986B7047C046F80E002080697047B7
:1037400070B504000D0000F0A5F824230422E35C0A
:10375000002D05D013432422A35400F0A7F870BD18
:103760009343F8E710B5040000F094F82423E45CD8
:1037700000F09CF86407E40F200010BD10B50400B1
:1037800000F088F82423E45C00F090F86407E40F6C
:10379000200010BD406870470068704710B50400F5
:1037A00000F078F82423E35C01241C4000F07EF84C
:1037B000200010BD10B5040000F06CF8E46900F0C2
:1037C00075F8200010BDC04670B50D00040000F073
:1037D00061F8E56100F06AF870BDC04610B50400FC
:1037E000FEF78AFF2000FEF7C7F80400FEF78CFF03
:1037F000200010BD10B5041E06D0FEF77DFF20008E
:10380000FEF7CCF8FEF780FF10BDC04600000000B8
:10381000002382B0019372B6019B002BFCD002B052
:103820007047C0460A4A13681868203080F3098838
:10383000022080F31488BFF36F8F3FBCAE4608BCF4
:1038400004BC62B61847C046C046C046C046C04623
:10385000780E002010B58024031F64041C60043B14
:1038600019600349043B1960143B40381A6010BDCD
:10387000113800107047C0467047C0468022044B84
:1038800052051A60BFF34F8FBFF36F8F7047C0466A
:1038900004ED00E072B6044A136801331360BFF30D
:1038A0004F8FBFF36F8F704728020020034A1368C1
:1038B000013B1360002B00D162B670472802002044
:1038C000EFF3108072B6704780F310887047C046DF
:1038D000EFF309800E4B1A6820381060F0C04446A0
:1038E0004D4656465F46F0C008B572B6FFF752F82F
:1038F00062B60CBC116808681030F0C8A046A94632
:10390000B246BB4680F309882038F0C81847C04645
:10391000780E002010B5FFF7D3FF0400FFF728F85A
:10392000002803D08022034B52051A602000FFF7C5
:10393000CBFF10BD04ED00E00022054B05491A60E5
:103940000A60054A0549116007221A607047C0469F
:1039500010E000E018E000E014E000E04F4B14003D
:10396000FF220E4B1204196810B50A431A60FF2299
:103970000024196812060A4382B01A60FFF7DCFFC0
:10398000074B1C60FFF74EFFFFF704F8019472B677
:10399000019B002BFCD0002002B010BD20ED00E008
:1039A000280200200300083301224360C360036142
:1039B00000235242826003607047C04600230361C7
:1039C0007047C04643689A684B608A609A68516045
:1039D000996003680861013303607047030030B5E4
:1039E0000C680833621C0DD01A005B681D68A54284
:1039F000FAD94B60996003688A60013351600861AD
:103A0000036030BD02695368F3E7C046036941684B
:103A100082688A6051605968814206D00022026142
:103A20001A68013A1A60186870475A60F6E7C0468B
:103A300070B504000D00002832D0C36B0020002BAD
:103A400020D0216C180C0A0C1DD100282AD1FFF7B8
:103A500021FF216CE36B22684B43D0185B1AD3180B
:103A6000A0606260E3604422FF230020A063A354AF
:103A70000132A354002D18D12369002B1ED1FFF76A
:103A800015FF012070BD00280AD1181C89B29BB215
:103A90004B4380B292B242431B0CD3181B0CD6D0BE
:103AA0000020EFE7021C081CF0E720001030FFF7B1
:103AB00079FF20002430FFF775FFE0E72000103089
:103AC000FFF790F80028DAD0FFF7D8FED7E7C04616
:103AD00070B505000E00002843D00B0C020C002B23
:103AE00031D1331C002A32D13000684303004933FE
:103AF00037D84830FFF772FE041E32D00300002E84
:103B000000D048332360E5632664FFF7C3FE216CD1
:103B1000E36B22684B43D018A06000205B1AD318D7
:103B20006260E3604422FF23A0632000A3540132BB
:103B3000A3541030FFF736FF20002430FFF732FF88
:103B4000FFF7B4FE0EE0002A0BD11A1C031CB0B222
:103B5000A9B2414398B293B24343090C5B181B0CC2
:103B6000C2D00024200070BDF0B5CE464746040008
:103B7000060080B585B0994601928846FFF78AFE17
:103B8000A36BE26B0025243693427CD34B46022B79
:103B900000D1E1E0019B002B00D1F9E0002D00D124
:103BA000D6E0FFF783FEFEF7A7FDFFF773FE442282
:103BB000A35C5BB2013301D10023A3544522A35C73
:103BC0005BB2013301D10023A354FFF76FFE01A9BB
:103BD00002A8FFF7CBF8002800D0DDE0FFF75AFE7F
:103BE000A36BE26B934261D0FFF760FEFFF752FEDA
:103BF0004523E55C6DB2002D05DC13E0013DEBB221
:103C00006DB2002B0ED0636A002B0BD03000FEF794
:103C1000E9FF0028F2D0013DFFF7D0F8EBB26DB21A
:103C2000002BF0D14523FF22E254FFF73FFEFFF7C0
:103C300031FE44232700E55C10376DB2002D05DC12
:103C400013E0013DEBB26DB2002B0ED02369002BC7
:103C50000BD03800FEF7C6FF0028F2D0013DFFF779
:103C6000ADF8EBB26DB2002BF0D14423FF22E25449
:103C7000FFF71CFEFEF748FD0125FFF70BFEA36BC7
:103C8000E26B934282D2226CA56B002A00D0CDE079
:103C90000135A563636A002B00D0DBE0FFF706FE69
:103CA000012005B0C0BCB946B046F0BD27001037B2
:103CB000FFF7FCFD38000199FEF7BEFEFFF7EAFDB5
:103CC0004523E55C6DB2002D05DC13E0013DEAB251
:103CD0006DB2002A0ED0636A002B0BD03000FEF7C5
:103CE00081FF0028F2D0013DFFF768F8EAB26DB21B
:103CF000002AF0D14523FF22E254FFF7D7FDFFF75A
:103D0000C9FD4423E55C6DB2002D05DC13E0013DE7
:103D1000EAB26DB2002A0ED02369002B0BD0380016
:103D2000FEF760FF0028F2D0013DFFF747F8EAB246
:103D30006DB2002AF0D14423FF22E254FFF7B6FD12
:103D4000FEF7E2FC002897D1FFF798FD012594E7E4
:103D500002A8FFF703F824E7226CA56B002A97D08E
:103D60004146E068FDF72CFEE168236C5A42CB1A0D
:103D70002168E3608B4207D2A3689C466244E260FC
:103D80004B46022B00D083E7002D00D081E77FE770
:103D9000FFF78CFD002084E7FFF77CFD452326001C
:103DA000E55C24366DB2002D05DC13E0013DEAB27E
:103DB0006DB2002A0ED0636A002B0BD03000FEF7E4
:103DC00011FF0028F2D0013DFEF7F8FFEAB26DB214
:103DD000002AF0D14523FF22E254FFF767FDFFF7E9
:103DE00059FD44232600E55C10366DB2002D05DC3C
:103DF00013E0013DEAB26DB2002A0ED02369002B18
:103E00000BD03000FEF7EEFE0028F2D0013DFEF7A9
:103E1000D5FFEAB26DB2002AF0D14423FF22E2546A
:103E2000FFF744FDFEF770FC00203AE74B464146A1
:103E3000002B19D16068FDF7C3FD226C63689446BE
:103E4000A26863446360934200D221E7236801358E
:103E500063601EE720002430FEF7C4FE002800D176
:103E60001CE7FFF70BFD19E7E068FDF7A9FDE16826
:103E7000236C5A42CB1A2168E3608B4280D27BE7E5
:103E8000F0B54F46D6464646C0B5040099460F00E9
:103E90009046FFF715FDE36B0500A06B984237D302
:103EA0004B46022B09D000242800FFF70DFD20000F
:103EB000E0BCBA46B146A846F0BD4523226CE65C9C
:103EC000A36BA36B76B29A46002A2AD03900E06829
:103ED000FDF776FDE168236C5A42CB1A2168E36056
:103EE0008B4249D2A3689C466244E2604B46022B57
:103EF00042D053460133A363731C16D0FEF712FD64
:103F0000864215D24523013676B2E6540124CBE72A
:103F10004523226CE65CA36BA36B76B29A46002A1B
:103F200008D10133A363731CE8D1636A002B15D158
:103F30000124B9E74B463900002B21D16068FDF719
:103F40003FFD226C63689446A268634463609342B9
:103F5000CFD32368636053460133E3E72000243066
:103F6000FEF740FE0028E3D04346002BE0D00123BB
:103F700042460124136097E75346002BD2D1D0E785
:103F8000E068FDF71DFDE168236C5A42CB1A2168F9
:103F9000E3608B42AAD2A5E7F0B5C646040000B59F
:103FA0000E00FFF78DFCA36BE26B050000279A4221
:103FB0000BD94522A75C01337FB29046A3637B1CDB
:103FC0000AD1636A002B11D101272800FFF77CFC7E
:103FD000380080BCB846F0BDFEF7A4FC8742F3D29F
:103FE000434601377FB2E7540127EEE72000243033
:103FF000FEF7F8FD0028E7D0002EE5D001230127C9
:104000003360E2E7F0B5CE464746040080B585B0A0
:1040100088460192FFF73EFCA56B002D00D01FE102
:10402000019B002B00D1CBE0260002A8FEF796FEF4
:1040300044272436FFF73AFCFEF75EFBFFF72AFC25
:10404000E35D5BB2013301D10023E3554522A35C5C
:104050005BB2013301D10023A354FFF727FC01A970
:1040600002A8FEF783FE002855D1FFF713FCA36BCF
:10407000002B00D0ACE0FFF719FC30000199FEF7EF
:10408000DBFCFFF707FC4523E55C6DB2002D05DC8A
:1040900013E0013DEAB26DB2002A0ED0636A002B34
:1040A0000BD03000FEF79EFD0028F2D0013DFEF758
:1040B00085FEEAB26DB2002AF0D14523FF22E25418
:1040C000FFF7F4FBFFF7E6FB10239946E55DA144FB
:1040D0006DB2002D05DC13E0013DEAB26DB2002A9D
:1040E0000ED02369002B0BD04846FEF77BFD00283D
:1040F000F2D0013DFEF762FEEAB26DB2002AF0D1C5
:10410000FF23E355FFF7D2FBFEF7FEFA00284ED15E
:10411000FFF7B4FB4BE0FFF7BDFB4523E55C6DB259
:10412000002D05DC13E0013DEAB26DB2002A0ED08D
:10413000636A002B0BD03000FEF754FD0028F2D04C
:10414000013DFEF73BFEEAB26DB2002AF0D14523F5
:10415000FF22E254FFF7AAFBFFF79CFB10239946CE
:10416000E55DA1446DB2002D05DC13E0013DEAB22E
:104170006DB2002A0ED02369002B0BD04846FEF703
:1041800031FD0028F2D0013DFEF718FEEAB26DB213
:10419000002AF0D1FF23E355FFF788FBFEF7B4FABE
:1041A000FFF778FBA36B002B0AD0FFF77FFBFFF72D
:1041B00071FBA56B002D53D1019B002B00D039E77B
:1041C000FFF774FB002005B0C0BCB946B046F0BD97
:1041D000FFF76CFBFFF75EFB4523E55C6DB2002D3E
:1041E00005DC13E0013DEAB26DB2002A0ED0636A2D
:1041F000002B0BD03000FEF7F5FC0028F2D0013D7B
:10420000FEF7DCFDEAB26DB2002AF0D14523FF22B1
:10421000E254FFF74BFBFFF73DFB10239946E55DAA
:10422000A1446DB2002D05DC13E0013DEAB26DB290
:10423000002A0ED02369002B0BD04846FEF7D2FC93
:104240000028F2D0013DFEF7B9FDEAB26DB2002AB6
:10425000F0D1FF23E355FFF729FBFEF755FAA6E758
:10426000226C002A08D0E3689918A368E16099429B
:104270000BD24046FDF7A4FB013DA5632369002B4B
:1042800006D1FFF713FB01209DE72168E160F0E70D
:1042900020001030FEF7A6FC0028F2D0FFF7EEFA5F
:1042A000EFE7C046F0B5C646040000B584B0019102
:1042B000FFF7F0FAA36B002B00D022E1019B002B4B
:1042C00000D1CBE0260002A8FEF748FD44272436A3
:1042D000FFF7ECFAFEF710FAFFF7DCFAE35D5BB2EA
:1042E000013301D10023E3554522A35C5BB20133C6
:1042F00001D10023A354FFF7D9FA01A902A8FEF7C0
:1043000035FD002855D1FFF7C5FAA36B002B00D06F
:10431000ABE0FFF7CBFA30000199FEF78DFBFFF71A
:10432000B9FA4523E55C6DB2002D05DC13E0013DD3
:10433000EAB26DB2002A0ED0636A002B0BD03000B7
:10434000FEF750FC0028F2D0013DFEF737FDEAB23F
:104350006DB2002AF0D14523FF22E254FFF7A6FAFE
:10436000FFF798FAE55D6DB2002D17DD1023984632
:10437000A04404E0013DEAB26DB2002A0ED02369E8
:10438000002B0BD04046FEF72DFC0028F2D0013D5B
:10439000FEF714FDEAB26DB2002AF0D1FF23E35517
:1043A000FFF784FAFEF7B0F900284ED1FFF766FA5E
:1043B0004BE0FFF76FFA4523E55C6DB2002D05DC9D
:1043C00013E0013DEAB26DB2002A0ED0636A002B01
:1043D0000BD03000FEF706FC0028F2D0013DFEF7BE
:1043E000EDFCEAB26DB2002AF0D14523FF22E2547F
:1043F000FFF75CFAFFF74EFAE55D6DB2002D17DDB1
:1044000010239846A04404E0013DEAB26DB2002AB0
:104410000ED02369002B0BD04046FEF7E3FB0028AB
:10442000F2D0013DFEF7CAFCEAB26DB2002AF0D12B
:10443000FF23E355FFF73AFAFEF766F9FFF72AFA8A
:10444000A36B002B0AD0FFF731FAFFF723FAA36B17
:10445000002B56D1019B002B00D039E7FFF726FA3D
:10446000002004B080BCB846F0BDFFF71FFAFFF78C
:1044700011FA4523E55C6DB2002D05DC13E0013D2A
:10448000EAB26DB2002A0ED0636A002B0BD0300066
:10449000FEF7A8FB0028F2D0013DFEF78FFCEAB240
:1044A0006DB2002AF0D14523FF22E254FFF7FEF956
:1044B000FFF7F0F9E55D6DB2002D17DD102398468A
:1044C000A04404E0013DEAB26DB2002A0ED0236997
:1044D000002B0BD04046FEF785FB0028F2D0013DB3
:1044E000FEF76CFCEAB26DB2002AF0D1FF23E3556F
:1044F000FFF7DCF9FEF708F9FFF7CCF9A36B002B07
:10450000A8D0013BA3632369002B03D1FFF7CEF9A9
:104510000120A6E720001030FEF764FB0028F5D04C
:10452000FFF7ACF9F2E7C046F0B5CE4647460400C7
:1045300080B585B088460192FFF7ACF9A36B002BDC
:1045400000D01FE1019B002B00D1CBE0260002A888
:10455000FEF704FC44272436FFF7A8F9FEF7CCF851
:10456000FFF798F9E35D5BB2013301D10023E35516
:104570004522A35C5BB2013301D10023A354FFF7B2
:1045800095F901A902A8FEF7F1FB002855D1FFF724
:1045900081F9A36B002B00D0ACE0FFF787F9300066
:1045A0000199FEF749FAFFF775F94523E55C6DB20D
:1045B000002D05DC13E0013DEAB26DB2002A0ED0F9
:1045C000636A002B0BD03000FEF70CFB0028F2D002
:1045D000013DFEF7F3FBEAB26DB2002AF0D14523AC
:1045E000FF22E254FFF762F9FFF754F910239946CE
:1045F000E55DA1446DB2002D05DC13E0013DEAB29A
:104600006DB2002A0ED02369002B0BD04846FEF76E
:10461000E9FA0028F2D0013DFEF7D0FBEAB26DB214
:10462000002AF0D1FF23E355FFF740F9FEF76CF8BD
:1046300000284ED1FFF722F94BE0FFF72BF9452375
:10464000E55C6DB2002D05DC13E0013DEAB26DB210
:10465000002A0ED0636A002B0BD03000FEF7C2FA9E
:104660000028F2D0013DFEF7A9FBEAB26DB2002AA4
:10467000F0D14523FF22E254FFF718F9FFF70AF9BA
:1046800010239946E55DA1446DB2002D05DC13E0D1
:10469000013DEAB26DB2002A0ED02369002B0BD087
:1046A0004846FEF79FFA0028F2D0013DFEF786FB50
:1046B000EAB26DB2002AF0D1FF23E355FFF7F6F816
:1046C000FEF722F8FFF7E6F8A36B002B0AD0FFF7FE
:1046D000EDF8FFF7DFF8A36B002B53D1019B002B04
:1046E00000D039E7FFF7E2F8002005B0C0BCB946BA
:1046F000B046F0BDFFF7DAF8FFF7CCF84523E55CEC
:104700006DB2002D05DC13E0013DEAB26DB2002A66
:104710000ED0636A002B0BD03000FEF763FA00283E
:10472000F2D0013DFEF74AFBEAB26DB2002AF0D1A9
:104730004523FF22E254FFF7B9F8FFF7ABF8102347
:104740009946E55DA1446DB2002D05DC13E0013D05
:10475000EAB26DB2002A0ED02369002B0BD0484676
:10476000FEF740FA0028F2D0013DFEF727FBEAB23F
:104770006DB2002AF0D1FF23E355FFF797F8FDF75C
:10478000C3FFA6E7226CE568002A07D0A368A91832
:10479000E16099420AD24046FDF712F9636AE5608A
:1047A000002B06D1FFF782F801209EE72168E16027
:1047B000F1E720002430FEF715FA0028F2D0FFF7C9
:1047C0005DF8EFE7F8B5CE464746040080B5894668
:1047D0009046FFF775F8A66B05000027002E07D15D
:1047E0002800FFF771F83800C0BCB946B046F8BDE4
:1047F0004423226CE75C7FB2002A0AD0E368991850
:10480000A368E160994201D32168E1604846FDF761
:10481000D7F8013EA6637B1C04D12369002B0BD182
:104820000127DDE7FEF77EF88742F9D244230137FE
:104830007FB2E7540127D3E720001030FEF7D2F90A
:104840000028EDD04346002BEAD001234246012741
:104850001360C5E7F8B504000F00FFF731F8A36B4C
:1048600005000026002B04D12800FFF72DF83000AA
:10487000F8BD226CE668002A09D0A368B118E1608F
:10488000994201D32168E1603800FDF799F8E660AC
:104890000126E9E710B50400FEF7FCFFA46BFFF763
:1048A00005F8200010BDC04610B50400FEF7F2FF69
:1048B000A36BE46BE41AFEF7F9FF200010BDC046BD
:1048C000806B70471E4B70B55A6890421DD0DA68F5
:1048D000904222D05A69904221D0DA69904220D089
:1048E0005A6A90421FD0DA6A90421ED05A6B9042A8
:1048F0001DD0DA6B90421CD05A6C90421BD0DA6CFF
:1049000090421AD0FEF776FF70BD002200240025E9
:10491000D2009B181C605D60F4E70122F6E70222DA
:10492000F4E70322F2E70422F0E70522EEE706228D
:10493000ECE70722EAE70822E8E70922E6E7C046B3
:10494000880A0020806B434258417047836BC06BDC
:10495000C01A43425841704770B500290FD0002655
:104960000023424CDA00A5186D68854200D16FE043
:10497000002E05D001330A2BF4D13160706070BD78
:10498000A558002D61D05D1C092BF8D0EA00A618AF
:104990007668B0425CD0A658002E5DD09D1C082BD6
:1049A000EDD0EA00A6187668B04251D0A658002E85
:1049B00052D0DD1C072BE2D0EA00A61876688642AA
:1049C00046D0A658002E47D01D1D062BD7D0EA0092
:1049D000A6187668B0423BD0A658002E3CD05D1D8C
:1049E000052BCCD0EA00A6187668B04230D0A65885
:1049F000002E31D09A1D042BC1D0D50066197668DF
:104A0000B04224D06559002D29D0DD1D032BB6D02E
:104A1000EA00A6187668B0421AD0A658002E1BD01D
:104A20000135022BABD0EA00A6187668B0420FD051
:104A3000A658002E10D0012BA1D0E36C984212D0C2
:104A4000A36C002B9BD109234822A61892E7D20021
:104A5000A6183160706092E72B00A6188AE7130051
:104A6000D200A61886E74822A618F2E7880A002096
:104A70001B4A0300516888421CD0D16888421DD06F
:104A8000516988421CD0D16988421BD0516A884242
:104A90001AD0D16A884219D0516B884218D0D16B94
:104AA000884217D0516C884216D0D16C00209942B0
:104AB00014D070470023DB00D058FAE70123FAE74F
:104AC0000223F8E70323F6E70423F4E70523F2E7DC
:104AD0000623F0E70723EEE70823ECE70923EAE7DC
:104AE000880A00201C4B5A6890421BD0DA6890421A
:104AF00020D05A6990421FD0DA6990421ED05A6A7B
:104B000090421DD0DA6A90421CD05A6B90421BD062
:104B1000DA6B90421AD05A6C904219D0DA6C824209
:104B200018D07047002200200021D2009B18186086
:104B30005960F6E70122F6E70222F4E70322F2E7E2
:104B40000422F0E70522EEE70622ECE70722EAE777
:104B50000822E8E70922E6E7880A002070B5050088
:104B600016000C00FEF796FE4422AB5C5BB20133EC
:104B700001D10023AB544522AB5C5BB2013301D1C0
:104B80000023AB54FEF792FEAB6B002B46D0FEF732
:104B900081FE4523EC5C64B2002C16DD2E00243629
:104BA00004E0013CE2B264B2002A0ED06B6A002B32
:104BB0000BD03000FEF716F80028F2D0013CFEF7CB
:104BC000FDF8E2B264B2002AF0D14523FF22EA5494
:104BD000FEF76CFEFEF75EFE4423EC5C64B2002C34
:104BE00016DD2E00103604E0013CE2B264B2002A69
:104BF0000ED02B69002B0BD03000FDF7F3FF0028FF
:104C0000F2D0013CFEF7DAF8E2B264B2002AF0D149
:104C10004423FF22EA54FEF749FE70BD280032000B
:104C200021002430FDF790FFB1E7C04610B5034BDB
:104C30000100186800F00EF810BDC0462C020020DC
:104C400010B5034B0100186800F064FB10BDC046AE
:104C50002C020020F0B54E464546DE465746E0B5EC
:104C60000D000B35060083B0162D22D8102900D96F
:104C7000B2E000F0B1FA102518230220CC4FFB1847
:104C80001A005C68083A944200D1B5E003236268D8
:104C90009A431300E268A168CA6091600122E31898
:104CA000596830000A435A6000F09EFA200008302C
:104CB00095E007239D4300D58EE0A94200D98BE003
:104CC00000F08AFAFC235B009D4200D2A7E1680A4B
:104CD00000D18BE0042800D97AE138239846A8094E
:104CE00080443930C100B24F79184C680839A1426C
:104CF0000ED003239C4604E0002ACBDAE468A142EC
:104D000006D06246636893435A1B0F2AF4DD40467F
:104D10003A003C690832944200D178E0032361688C
:104D2000994389460B00491B0F2900DD7BE17A611D
:104D30003A610029B2DA80229200914500D30FE156
:104D40005909DA0801238B40D2007968D2190B4344
:104D500091687B60E260A1609460CC600121821068
:104D60009140994259D80B4205D103229043490002
:104D700004300B42FBD003239846C3009946B94444
:104D8000CC4682466346DC68A44507D12CE1002A64
:104D900000DB35E1E468A44500D125E142466368C3
:104DA00093435A1B0F2AF2DD012080466119054307
:104DB0006560A068E5680837C560A8604046104394
:104DC000F960B9604860CF6030008F60E25000F059
:104DD0000BFA2000083002E00C230020336003B0FF
:104DE000F0BCBB46B246A946A046F0BD80213F2399
:104DF00040209846890076E7DC680230A34200D064
:104E000044E73A003C690832944200D086E7012129
:104E10007B68821091409942A5D90323BC686268DF
:104E20009A439146954203D8531B0F2B00DD89E02E
:104E300023004B445F4A01935F4B93461B68126803
:104E4000EB18013200D13DE15C4A944663441B0BF0
:104E50001B0300933000009900F0CEF90300804658
:104E6000013300D1FAE0019B834200D9F4E0544BB6
:104E700000981A009A46126803009446514663440B
:104E80000B6001991A00414500D151E15B461B6856
:104E9000013300D156E1434601995B1A9A185346F3
:104EA0001A600723424641461A400192194200D136
:104EB00012E108239846881A424B009980444144E5
:104EC0009B1A5B1A1B051B0D0091300019009B46B5
:104ED00000F092F9431C00D150E14346C01A030090
:104EE0005B440093534652461B6801215B441360A8
:104EF00042464046BA60009A0A434260BC4200D132
:104F000024E14A460F2A00D822E107200C3A8243C6
:104F100060680140052011436160A1184860886005
:104F20000F2A00D935E142464446526826490868AE
:104F3000984200D20B6025490868984200D38FE060
:104F40000B608DE001222900134311436519616054
:104F50003000BD606B6000F047F9200008303EE78C
:104F60005A0A042A72D9142A00D9C5E011005C3209
:104F70005B31D20008235B429C46BA1894446346D6
:104F80009A6803239846944500D19EE043465168B1
:104F90009943494502D992689445F7D1D3689C4614
:104FA0007B686146A260E1608C60D460D6E6C04652
:104FB00058060020600A0020680F00200F10000033
:104FC000380F002008100000600F0020640F002040
:104FD000142852D9542800D996E06E239846280BFD
:104FE00080446F30C1007EE608239B46073BDC44CB
:104FF0009B46DA4443465246134200D0C2E64CE098
:105000000122E318596830000A435A60E368A26835
:10501000D3609A6000F0E8F820000830DFE62B004B
:10502000E80808332AE6012360191D4365607861AA
:105030003861C26082601A004B460A434260300009
:10504000E15000F0D1F820000830C8E69A091100BC
:1050500039323831D2008DE7BC4260D0BC6862681A
:1050600003239A43531B954202D80F2B00DD69E7B7
:10507000300000F0B9F80020B1E65B239846804488
:105080005C30C1002FE608235B429C46E1444B465E
:105090009B6801384B4500D098E043460342F2D16B
:1050A0007B688B437B604900994200D9B5E60029B3
:1050B00004D1B2E6042294464900E2440B42F9D0FE
:1050C00050465AE610330093C4E68910023B8B40E9
:1050D00079680B437B6064E7009B300043445B428C
:1050E0001B051B0D19009B4600F086F8431C00D0E1
:1050F000F3E600239B46F5E6542A2BD81A0B110041
:105100006F326E31D20035E7AA235B0098422BD86C
:10511000DD3B9846E80B80447830C100E3E52C4B3A
:10512000009A9A461B689C46534662441A60ADE654
:10513000090500D0AAE60200BC684A4401310A43CE
:105140006260F3E65B4642461A60AAE64446EDE634
:1051500041608DE7AA2149008A4224D8DA0B110068
:1051600078327731D20005E71A4B984224D87C2355
:105170009846A80C80447D30C100B4E5009A019B9C
:1051800094464246083B63449B1A009300239B4687
:10519000A8E621003000083100F0BCF85346BC6896
:1051A0001B686268C2E60B498A420BD89A0C110050
:1051B0007D327C31D200DDE6FE217E237F209846C1
:1051C000890090E5FE227E219200D3E67B686AE7A3
:1051D000380F00205405000010B5024800F07CF99B
:1051E00010BDC046340F002010B5024800F076F91B
:1051F00010BDC046340F0020002370B5064D0400DA
:1052000008002B60FBF7F8FE431C00D070BD2B6834
:10521000002BFBD02360F9E7E80F002010B58307CF
:105220000AD00300032102E001330B4205D01A78B3
:10523000002AF9D1181A10BD030019680C4A0D4C48
:105240008A188A4322420FD15968094A04338A18BE
:105250008A43224208D15968054A04338A188A438E
:105260002242F1D000E001331A78002AFBD1E1E7B5
:10527000FFFEFEFE80808080F8B50C000500FFF781
:10528000ABFF204FBB685E6803239E431E4B341B5D
:105290009C466444240B013C113324039C4207DBED
:1052A00000212800FFF7A8FFBB689B19984204D093
:1052B0002800FFF799FF0020F8BD28006142FFF7A2
:1052C0009BFF431C0DD00122BB68361B16435E605A
:1052D0000E4B28001A68141B1C60FFF785FF012085
:1052E000EAE700212800FFF787FFBA68831A0F2B2F
:1052F000DEDD07490968401A0449086001210B43B3
:105300005360D5E758060020EF0F0000380F00204B
:10531000600A0020F0B5C64605000C0000B5002963
:105320004FD0FFF759FF210008394C6801262200B1
:105330000320B2438F187B68834362489846836892
:10534000BB426AD043467B6026421ED108239C465E
:105350000C688444091B12198C6864454FD0CB68D3
:10536000E3609C604346FC186468344211D1BB681A
:10537000554C4244A34200D17EE0FC68DC60A3604F
:10538000012313434B608A5006E0FC1864683442E2
:10539000EDD016434E603A6080239B009A4213D2B0
:1053A0005409D3080122A2404468DB002243426032
:1053B00018188368C8608B608160D9602800FFF787
:1053C00013FF80BCB846F0BD530A042B3ED89409A5
:1053D000260039343836E40004192368083C0327D2
:1053E0009C4242D05868B843904202D99B689C4284
:1053F000F8D1DC68CC608B60A160D960DEE7434601
:10540000F8184068304257D1FB68B86842441643E8
:10541000C36098604E608A50D0E713004344264230
:1054200006D10A68891A8C689B18CA68E260946081
:1054300001221A434A60254A816012689A42BDD807
:10544000234B28001968FFF717FFB7E7142B07D97C
:10545000542B1AD8140B26006F346E36E400BBE7C9
:105460001E005C335B36DC00B6E70122B610B240AA
:10547000466832434260BDE7D9609960CB608B607B
:10548000012313434B608A5098E7AA246400A34287
:1054900005D8D40B260078347736E4009CE70D4C11
:1054A000A34205D8940C26007D347C36E40093E7B3
:1054B000FE247E26A4008FE7330013434B603A603E
:1054C0007CE7C0465806002060060020640A0020E1
:1054D000680F0020540500007047C0467047C04662
:1054E000F8B5C0460000000001B40248844601BC83
:1054F000604700BF4D01002001B40248844601BC52
:10550000604700BF7501002001B40248844601BC19
:10551000604700BF0901002001B40248844601BC75
:08552000604700BFC10000203C
:105528004C45445F5461736B00000000486172642D
:105538007761726520616C61726D20256420616CF1
:10554800726561647920636C61696D65640000004F
:105558000A2A2A2A2050414E4943202A2A2A0A0088
:105568000A000000486172642061737365727400F8
:105578004F7574206F66206D656D6F72790000003D
:1055880052656C6561736500626F6F74325F773264
:105598003571303830000000312E332E30000000D5
:1055A8007069636F00000000626C696E6B00000038
:1055B8004A616E20313720323032320006005250B4
:1055C800BBFF3CB6A855001006005250E182887F08
:1055D8009055001006005250D3F0754288550010BF
:1055E8000D0A00005541525420737464696E00001E
:1055F80055415254207374646F7574005541525468
:1056080020737464696E202F207374646F7574003E
:105618000600525053B4F4A104560010080052502A
:1056280092000000FA320010A0330010A0330010DE
:105638001A3400102C3400105E340010A03300100F
:10564800A03300101A3400102C340010546D72511D
:0C56580000000000546D722053766300C7
:10566400B4020010A80200109C020010C4550010DF
:1056740090020010D0550010DC5500101856001090
:045684002456001098
:10568800D02330B500251B0600245D5706E00368CB
:10569800BFF35F8F1C6081F3108820BF0268EFF3AF
:1056A800108172B61368002BFCD0BFF35F8F0379AB
:1056B8007F2BECD905710368BFF35F8F00221A6056
:1056C80081F3108830BDC04603000068EFF3108CEA
:1056D80072B60268002AFCD0BFF35F8F04229A5684
:1056E800002A0BDB00290FD000200A601B68BFF3DB
:1056F8005F8F00221A608CF310887047D022120640
:10570800126801201A71F1E70020EFE70268EFF351
:10571800108172B61368002BFCD0BFF35F8FFF2394
:1057280003710368BFF35F8F00221A6081F310884A
:1057380040BF70477047C046100000009401002029
:1057480000000000D80A0020A40F0020000000007C
:1057580000000000B40F002000000000000000005E
:105768001000000000000000000001000000000020
:10577800000000000000020000000000000000001F
:105788000000030000000000000000000000FF000F
:105798000000000000B5486801318E460047704699
:1057A80009380149884700BD711500100000000044
:1057B800503300004C3300005433000052330000D3
:1057C8004D5300004D4300005334000043340000A3
:1057D800AD1C001000000000F91C001000000000C3
:1057E8000001000004000000AAAAAAAA30020020B2
:1057F800000000001C05002084050020EC050020A6
:105808000000000000000000000000000000000090
:105818000000000000000000000000000000000080
:105828000000000000000000000000000000000070
:105838000000000000000000000000000000000060
:105848000000000000000000000000000000000050
:105858000000000000000000000000000000000040
:105868000000000000000000000000000000000030
:105878000000000000000000000000000000000020
:105888000000000000000000000000000000000010
:1058980000000000000000000100000000000000FF
:1058A8000E33CDAB34126DE6ECDE05000B000000C4
:1058B80000000000000000000000000000000000E0
:1058C80000000000000000000000000000000000D0
:1058D80000000000000000000000000000000000C0
:1058E80000000000000000000000000000000000B0
:105C28005806002058060020600600206006002064
:105C38006806002068060020700600207006002014
:105C480078060020780600208006002080060020C4
:105C58008806002088060020900600209006002074
:105C68009806002098060020A0060020A006002024
:105C7800A8060020A8060020B0060020B0060020D4
:105C8800B8060020B8060020C0060020C006002084
:105C9800C8060020C8060020D0060020D006002034
:105CA800D8060020D8060020E0060020E0060020E4
:105CB800E8060020E8060020F0060020F006002094
:105CC800F8060020F8060020000700200007002042
:105CD80008070020080700201007002010070020F0
:105CE80018070020180700202007002020070020A0
:105CF8002807002028070020300700203007002050
:105D080038070020380700204007002040070020FF
:105D180048070020480700205007002050070020AF
:105D2800580700205807002060070020600700205F
:105D3800680700206807002070070020700700200F
:105D480078070020780700208007002080070020BF
:105D5800880700208807002090070020900700206F
:105D68009807002098070020A0070020A00700201F
:105D7800A8070020A8070020B0070020B0070020CF
:105D8800B8070020B8070020C0070020C00700207F
:105D9800C8070020C8070020D0070020D00700202F
:105DA800D8070020D8070020E0070020E0070020DF
:105DB800E8070020E8070020F0070020F00700208F
:105DC800F8070020F807002000080020000800203D
:105DD80008080020080800201008002010080020EB
:105DE800180800201808002020080020200800209B
:105DF800280800202808002030080020300800204B
